:100000000C942A000C9434000C9434000C943400AA
:100010000C9434000C9434000C9434000C94340090
:100020000C9434000C9434000C9434000C94340080
:100030000C9434000C9434000C9434000C94340070
:100040000C9434000C9434000C9434000C94340060
:100050000C94340011241FBECFE5D4E0DEBFCDBF29
:100060000E94E6010C94ED010C940000843008F02D
:1000700073C0683008F070C04130B1F5813099F03C
:10008000813030F08230D1F0833009F065C021C07A
:100090002AB381E090E002C0880F991F6A95E2F7C9
:1000A000282B2ABB089527B381E090E002C0880F77
:1000B000991F6A95E2F7282B27BB089524B381E0A6
:1000C00090E002C0880F991F6A95E2F7282B24BBA5
:1000D000089521B381E090E002C0880F991F6A95CE
:1000E000E2F7282B21BB0895813099F0813028F068
:1000F0008230D9F0833081F524C02AB381E090E0CA
:1001000002C0880F991F6A95E2F7809582238ABB07
:10011000089527B381E090E002C0880F991F6A9587
:10012000E2F78095822387BB089524B381E090E0B5
:1001300002C0880F991F6A95E2F78095822384BBDD
:10014000089521B381E090E002C0880F991F6A955D
:10015000E2F78095822381BB0895843008F067C060
:10016000683008F064C0413059F5813041F0813089
:1001700080F1823079F0833009F059C016C028B37D
:1001800081E090E002C0880F991F6A95E2F7282B62
:1001900028BB089525B381E090E002C0880F991F25
:1001A0006A95E2F7282B25BB089522B381E090E001
:1001B00002C0880F991F6A95E2F7282B22BB089589
:1001C000813091F0813028F08230D1F0833079F5A0
:1001D00023C02BB381E090E002C0880F991F6A957D
:1001E000E2F7282B2BBB089528B381E090E002C0F2
:1001F000880F991F6A95E2F78095822388BB08953E
:1002000025B381E090E002C0880F991F6A95E2F75C
:100210008095822385BB089522B381E090E002C0DF
:10022000880F991F6A95E2F78095822382BB089513
:100230008430D0F46830C0F4813049F0813028F047
:10024000823039F0833081F406C089B305C086B3AB
:1002500003C083B301C080B390E002C09595879539
:100260006A95E2F78170089580E00895813049F041
:10027000813028F0823039F0833041F406C06BBB06
:10028000089568BB089565BB089562BB0895613009
:10029000A9F4813051F0813028F0823049F0833068
:1002A000F9F409C08FEF8ABB08958FEF87BB0895DB
:1002B0008FEF84BB08958FEF81BB0895813051F09B
:1002C000813028F0823041F0833051F407C08FEF45
:1002D0008BBB089517BA089514BA08958FEF81BBA8
:1002E0000895FF920F931F93182F062FF22E0E944E
:1002F0003600812F602F4F2D0E94AD001F910F916E
:10030000FF90089580E593EC29E130E0F901319701
:10031000F1F70197D9F7089581E061E00E94470164
:1003200083E060E041E00E94360081E06FEF0E94D0
:10033000360181E060E00E94360183E060E041E048
:100340000E94AD0083E060E040E00E94AD000895AF
:1003500082E065E040E00E94360082E066E041E035
:100360000E94360082E065E00E941801813021F48D
:1003700082E066E041E003C082E066E040E00E9487
:10038000AD0081E06FEF0E94360180E197E229E144
:1003900030E0F9013197F1F70197D9F781E060E09A
:1003A0000E94360183E060E041E00E94AD0080E100
:1003B00097E229E130E0F9013197F1F70197D9F798
:1003C00083E060E040E00E94AD0008950E948C014F
:0E03D0000E9482010E94A801F9CFF894FFCF8D
:00000001FF
